{
  "_format": "hh-sol-artifact-1",
  "contractName": "AIMePowers",
  "sourceName": "contracts/aime/AIMe.sol",
  "abi": [
    {
      "anonymous": false,
      "inputs": [
        {
          "indexed": true,
          "internalType": "address",
          "name": "previousOwner",
          "type": "address"
        },
        {
          "indexed": true,
          "internalType": "address",
          "name": "newOwner",
          "type": "address"
        }
      ],
      "name": "OwnershipTransferred",
      "type": "event"
    },
    {
      "anonymous": false,
      "inputs": [
        {
          "indexed": false,
          "internalType": "address",
          "name": "trader",
          "type": "address"
        },
        {
          "indexed": false,
          "internalType": "address",
          "name": "subject",
          "type": "address"
        },
        {
          "indexed": false,
          "internalType": "bool",
          "name": "isBuy",
          "type": "bool"
        },
        {
          "indexed": false,
          "internalType": "uint256",
          "name": "shareAmount",
          "type": "uint256"
        },
        {
          "indexed": false,
          "internalType": "uint256",
          "name": "ethAmount",
          "type": "uint256"
        },
        {
          "indexed": false,
          "internalType": "uint256",
          "name": "protocolEthAmount",
          "type": "uint256"
        },
        {
          "indexed": false,
          "internalType": "uint256",
          "name": "subjectEthAmount",
          "type": "uint256"
        },
        {
          "indexed": false,
          "internalType": "uint256",
          "name": "supply",
          "type": "uint256"
        }
      ],
      "name": "Trade",
      "type": "event"
    },
    {
      "inputs": [
        {
          "internalType": "address",
          "name": "",
          "type": "address"
        },
        {
          "internalType": "uint256",
          "name": "",
          "type": "uint256"
        }
      ],
      "name": "addressNonceUsed",
      "outputs": [
        {
          "internalType": "bool",
          "name": "",
          "type": "bool"
        }
      ],
      "stateMutability": "view",
      "type": "function"
    },
    {
      "inputs": [],
      "name": "attester",
      "outputs": [
        {
          "internalType": "address",
          "name": "",
          "type": "address"
        }
      ],
      "stateMutability": "view",
      "type": "function"
    },
    {
      "inputs": [
        {
          "internalType": "address",
          "name": "sharesSubject",
          "type": "address"
        },
        {
          "internalType": "uint256",
          "name": "amount",
          "type": "uint256"
        }
      ],
      "name": "buyShares",
      "outputs": [],
      "stateMutability": "payable",
      "type": "function"
    },
    {
      "inputs": [
        {
          "internalType": "address",
          "name": "sharesSubject",
          "type": "address"
        },
        {
          "internalType": "uint256",
          "name": "amount",
          "type": "uint256"
        },
        {
          "internalType": "uint256",
          "name": "nonce",
          "type": "uint256"
        },
        {
          "internalType": "bytes",
          "name": "signature",
          "type": "bytes"
        }
      ],
      "name": "claimShare",
      "outputs": [
        {
          "internalType": "bool",
          "name": "",
          "type": "bool"
        }
      ],
      "stateMutability": "nonpayable",
      "type": "function"
    },
    {
      "inputs": [
        {
          "internalType": "address",
          "name": "sharesSubject",
          "type": "address"
        },
        {
          "internalType": "uint256",
          "name": "amount",
          "type": "uint256"
        }
      ],
      "name": "getBuyPrice",
      "outputs": [
        {
          "internalType": "uint256",
          "name": "",
          "type": "uint256"
        }
      ],
      "stateMutability": "view",
      "type": "function"
    },
    {
      "inputs": [
        {
          "internalType": "address",
          "name": "sharesSubject",
          "type": "address"
        },
        {
          "internalType": "uint256",
          "name": "amount",
          "type": "uint256"
        }
      ],
      "name": "getBuyPriceAfterFee",
      "outputs": [
        {
          "internalType": "uint256",
          "name": "",
          "type": "uint256"
        }
      ],
      "stateMutability": "view",
      "type": "function"
    },
    {
      "inputs": [
        {
          "internalType": "uint256",
          "name": "supply",
          "type": "uint256"
        },
        {
          "internalType": "uint256",
          "name": "amount",
          "type": "uint256"
        }
      ],
      "name": "getPrice",
      "outputs": [
        {
          "internalType": "uint256",
          "name": "",
          "type": "uint256"
        }
      ],
      "stateMutability": "view",
      "type": "function"
    },
    {
      "inputs": [
        {
          "internalType": "address",
          "name": "sharesSubject",
          "type": "address"
        },
        {
          "internalType": "uint256",
          "name": "amount",
          "type": "uint256"
        }
      ],
      "name": "getSellPrice",
      "outputs": [
        {
          "internalType": "uint256",
          "name": "",
          "type": "uint256"
        }
      ],
      "stateMutability": "view",
      "type": "function"
    },
    {
      "inputs": [
        {
          "internalType": "address",
          "name": "sharesSubject",
          "type": "address"
        },
        {
          "internalType": "uint256",
          "name": "amount",
          "type": "uint256"
        }
      ],
      "name": "getSellPriceAfterFee",
      "outputs": [
        {
          "internalType": "uint256",
          "name": "",
          "type": "uint256"
        }
      ],
      "stateMutability": "view",
      "type": "function"
    },
    {
      "inputs": [
        {
          "internalType": "address",
          "name": "sharesSubject",
          "type": "address"
        }
      ],
      "name": "initShares",
      "outputs": [],
      "stateMutability": "nonpayable",
      "type": "function"
    },
    {
      "inputs": [],
      "name": "initSupply",
      "outputs": [
        {
          "internalType": "uint256",
          "name": "",
          "type": "uint256"
        }
      ],
      "stateMutability": "view",
      "type": "function"
    },
    {
      "inputs": [],
      "name": "maxSupply",
      "outputs": [
        {
          "internalType": "uint256",
          "name": "",
          "type": "uint256"
        }
      ],
      "stateMutability": "view",
      "type": "function"
    },
    {
      "inputs": [],
      "name": "owner",
      "outputs": [
        {
          "internalType": "address",
          "name": "",
          "type": "address"
        }
      ],
      "stateMutability": "view",
      "type": "function"
    },
    {
      "inputs": [],
      "name": "protocolFeeDestination",
      "outputs": [
        {
          "internalType": "address",
          "name": "",
          "type": "address"
        }
      ],
      "stateMutability": "view",
      "type": "function"
    },
    {
      "inputs": [],
      "name": "protocolFeePercent",
      "outputs": [
        {
          "internalType": "uint256",
          "name": "",
          "type": "uint256"
        }
      ],
      "stateMutability": "view",
      "type": "function"
    },
    {
      "inputs": [],
      "name": "renounceOwnership",
      "outputs": [],
      "stateMutability": "nonpayable",
      "type": "function"
    },
    {
      "inputs": [
        {
          "internalType": "address",
          "name": "sharesSubject",
          "type": "address"
        },
        {
          "internalType": "uint256",
          "name": "amount",
          "type": "uint256"
        }
      ],
      "name": "sellShares",
      "outputs": [],
      "stateMutability": "payable",
      "type": "function"
    },
    {
      "inputs": [
        {
          "internalType": "address",
          "name": "_attester",
          "type": "address"
        }
      ],
      "name": "setAttester",
      "outputs": [],
      "stateMutability": "nonpayable",
      "type": "function"
    },
    {
      "inputs": [
        {
          "internalType": "address",
          "name": "_feeDestination",
          "type": "address"
        }
      ],
      "name": "setFeeDestination",
      "outputs": [],
      "stateMutability": "nonpayable",
      "type": "function"
    },
    {
      "inputs": [
        {
          "internalType": "uint256",
          "name": "_feePercent",
          "type": "uint256"
        }
      ],
      "name": "setProtocolFeePercent",
      "outputs": [],
      "stateMutability": "nonpayable",
      "type": "function"
    },
    {
      "inputs": [
        {
          "internalType": "uint256",
          "name": "_feePercent",
          "type": "uint256"
        }
      ],
      "name": "setSubjectFeePercent",
      "outputs": [],
      "stateMutability": "nonpayable",
      "type": "function"
    },
    {
      "inputs": [
        {
          "internalType": "address",
          "name": "",
          "type": "address"
        },
        {
          "internalType": "address",
          "name": "",
          "type": "address"
        }
      ],
      "name": "sharesBalance",
      "outputs": [
        {
          "internalType": "uint256",
          "name": "",
          "type": "uint256"
        }
      ],
      "stateMutability": "view",
      "type": "function"
    },
    {
      "inputs": [
        {
          "internalType": "address",
          "name": "",
          "type": "address"
        }
      ],
      "name": "sharesRewardsBalance",
      "outputs": [
        {
          "internalType": "uint256",
          "name": "",
          "type": "uint256"
        }
      ],
      "stateMutability": "view",
      "type": "function"
    },
    {
      "inputs": [
        {
          "internalType": "address",
          "name": "",
          "type": "address"
        }
      ],
      "name": "sharesSupply",
      "outputs": [
        {
          "internalType": "uint256",
          "name": "",
          "type": "uint256"
        }
      ],
      "stateMutability": "view",
      "type": "function"
    },
    {
      "inputs": [],
      "name": "subjectFeePercent",
      "outputs": [
        {
          "internalType": "uint256",
          "name": "",
          "type": "uint256"
        }
      ],
      "stateMutability": "view",
      "type": "function"
    },
    {
      "inputs": [
        {
          "internalType": "address",
          "name": "newOwner",
          "type": "address"
        }
      ],
      "name": "transferOwnership",
      "outputs": [],
      "stateMutability": "nonpayable",
      "type": "function"
    }
  ],
  "bytecode": "0x6080604052610bb860045561271060055534801561001c57600080fd5b506100263361002b565b61007b565b600080546001600160a01b038381166001600160a01b0319831681178455604051919092169283917f8be0079c531659141344cd1fd0a4f28419497f9722a3daafe3b4186f6b6457e09190a35050565b6121868061008a6000396000f3fe6080604052600436106101a15760003560e01c806397d63f93116100e1578063d1ebb7621161008a578063f2fde38b11610064578063f2fde38b146104c8578063f9931be0146104e8578063fbe5323414610515578063fd9cac821461053557600080fd5b8063d1ebb7621461046f578063d5abeb011461049c578063d6e6eb9f146104b257600080fd5b8063a4983421116100bb578063a4983421146103f1578063b51d053414610411578063cd9073151461042457600080fd5b806397d63f931461039b5780639ae71781146103b15780639daf85ab146103d157600080fd5b80634ce7957c1161014e578063610495ef11610128578063610495ef146103285780636945b12314610348578063715018a61461035b5780638da5cb5b1461037057600080fd5b80634ce7957c146102b95780635a8a764e146102e65780635cf4ee911461030857600080fd5b806324dc441d1161017f57806324dc441d146102315780634635256e1461024757806347b0c3b31461026757600080fd5b8063020235ff146101a65780630f026f6d146101f15780632267a89c14610211575b600080fd5b3480156101b257600080fd5b506101de6101c1366004611ef6565b600860209081526000928352604080842090915290825290205481565b6040519081526020015b60405180910390f35b3480156101fd57600080fd5b506101de61020c366004611f28565b610555565b34801561021d57600080fd5b506101de61022c366004611f28565b6105cf565b34801561023d57600080fd5b506101de60035481565b34801561025357600080fd5b506101de610262366004611f28565b61063d565b34801561027357600080fd5b506006546102949073ffffffffffffffffffffffffffffffffffffffff1681565b60405173ffffffffffffffffffffffffffffffffffffffff90911681526020016101e8565b3480156102c557600080fd5b506001546102949073ffffffffffffffffffffffffffffffffffffffff1681565b3480156102f257600080fd5b5061030661030136600461203d565b610674565b005b34801561031457600080fd5b506101de610323366004612055565b6106ff565b34801561033457600080fd5b50610306610343366004611edc565b6107a9565b610306610356366004611f28565b610914565b34801561036757600080fd5b50610306610d5a565b34801561037c57600080fd5b5060005473ffffffffffffffffffffffffffffffffffffffff16610294565b3480156103a757600080fd5b506101de60045481565b3480156103bd57600080fd5b506101de6103cc366004611f28565b610de7565b3480156103dd57600080fd5b506103066103ec366004611edc565b610e22565b3480156103fd57600080fd5b5061030661040c36600461203d565b610eea565b61030661041f366004611f28565b610f70565b34801561043057600080fd5b5061045f61043f366004611f28565b600760209081526000928352604080842090915290825290205460ff1681565b60405190151581526020016101e8565b34801561047b57600080fd5b506101de61048a366004611edc565b60096020526000908152604090205481565b3480156104a857600080fd5b506101de60055481565b3480156104be57600080fd5b506101de60025481565b3480156104d457600080fd5b506103066104e3366004611edc565b6113d2565b3480156104f457600080fd5b506101de610503366004611edc565b600a6020526000908152604090205481565b34801561052157600080fd5b50610306610530366004611edc565b611502565b34801561054157600080fd5b5061045f610550366004611f51565b6115ca565b600080610562848461063d565b90506000670de0b6b3a76400006002548361057d91906120c7565b610587919061208e565b90506000670de0b6b3a7640000600354846105a291906120c7565b6105ac919061208e565b9050806105b98385612076565b6105c39190612076565b93505050505b92915050565b6000806105dc8484610de7565b90506000670de0b6b3a7640000600254836105f791906120c7565b610601919061208e565b90506000670de0b6b3a76400006003548461061c91906120c7565b610626919061208e565b9050806106338385612104565b6105c39190612104565b73ffffffffffffffffffffffffffffffffffffffff82166000908152600a602052604081205461066d90836106ff565b9392505050565b60005473ffffffffffffffffffffffffffffffffffffffff1633146106fa576040517f08c379a000000000000000000000000000000000000000000000000000000000815260206004820181905260248201527f4f776e61626c653a2063616c6c6572206973206e6f7420746865206f776e657260448201526064015b60405180910390fd5b600355565b6000600454831015610713575060006105c9565b6000600454846107239190612104565b6004546107309086612104565b61073a91906120c7565b90506000836004548661074d9190612104565b6107579190612076565b84600454876107669190612104565b6107709190612076565b61077a91906120c7565b905060006107888383612104565b90506103e861079f82670de0b6b3a76400006120c7565b6105c3919061208e565b73ffffffffffffffffffffffffffffffffffffffff8116331461084e576040517f08c379a000000000000000000000000000000000000000000000000000000000815260206004820152602e60248201527f4f6e6c79207468652073686172657327207375626a6563742063616e20696e6960448201527f7461696c697a652073686172657300000000000000000000000000000000000060648201526084016106f1565b73ffffffffffffffffffffffffffffffffffffffff81166000908152600a6020526040902054156108db576040517f08c379a000000000000000000000000000000000000000000000000000000000815260206004820152601360248201527f416c726561647920696e697469616c697a65640000000000000000000000000060448201526064016106f1565b60045473ffffffffffffffffffffffffffffffffffffffff9091166000908152600a602090815260408083208490556009909152902055565b73ffffffffffffffffffffffffffffffffffffffff82166000908152600a60205260409020546004548110156109a6576040517f08c379a000000000000000000000000000000000000000000000000000000000815260206004820152601b60248201527f53686f756c6420626520696e697469616c697a6564206669727374000000000060448201526064016106f1565b6005546109b38383612076565b1115610a1b576040517f08c379a000000000000000000000000000000000000000000000000000000000815260206004820152600f60248201527f457863656564206861726420636170000000000000000000000000000000000060448201526064016106f1565b6000610a2782846106ff565b90506000670de0b6b3a764000060025483610a4291906120c7565b610a4c919061208e565b90506000670de0b6b3a764000060035484610a6791906120c7565b610a71919061208e565b905080610a7e8385612076565b610a889190612076565b341015610af1576040517f08c379a000000000000000000000000000000000000000000000000000000000815260206004820152601460248201527f496e73756666696369656e74207061796d656e7400000000000000000000000060448201526064016106f1565b73ffffffffffffffffffffffffffffffffffffffff86166000908152600860209081526040808320338452909152902054610b2d908690612076565b73ffffffffffffffffffffffffffffffffffffffff87166000908152600860209081526040808320338452909152902055610b688585612076565b73ffffffffffffffffffffffffffffffffffffffff87166000908152600a60205260409020557f2c76e7a47fd53e2854856ac3f0a5f3ee40d15cfaa82266357ea9779c486ab9c33387600188878787610bc1848d612076565b6040805173ffffffffffffffffffffffffffffffffffffffff998a168152979098166020880152941515868801526060860193909352608085019190915260a084015260c083015260e08201529051908190036101000190a160015460405160009173ffffffffffffffffffffffffffffffffffffffff169084908381818185875af1925050503d8060008114610c74576040519150601f19603f3d011682016040523d82523d6000602084013e610c79565b606091505b5050905060008773ffffffffffffffffffffffffffffffffffffffff168360405160006040518083038185875af1925050503d8060008114610cd7576040519150601f19603f3d011682016040523d82523d6000602084013e610cdc565b606091505b50509050818015610cea5750805b610d50576040517f08c379a000000000000000000000000000000000000000000000000000000000815260206004820152601460248201527f556e61626c6520746f2073656e642066756e647300000000000000000000000060448201526064016106f1565b5050505050505050565b60005473ffffffffffffffffffffffffffffffffffffffff163314610ddb576040517f08c379a000000000000000000000000000000000000000000000000000000000815260206004820181905260248201527f4f776e61626c653a2063616c6c6572206973206e6f7420746865206f776e657260448201526064016106f1565b610de56000611924565b565b73ffffffffffffffffffffffffffffffffffffffff82166000908152600a602052604081205461066d90610e1c908490612104565b836106ff565b60005473ffffffffffffffffffffffffffffffffffffffff163314610ea3576040517f08c379a000000000000000000000000000000000000000000000000000000000815260206004820181905260248201527f4f776e61626c653a2063616c6c6572206973206e6f7420746865206f776e657260448201526064016106f1565b600680547fffffffffffffffffffffffff00000000000000000000000000000000000000001673ffffffffffffffffffffffffffffffffffffffff92909216919091179055565b60005473ffffffffffffffffffffffffffffffffffffffff163314610f6b576040517f08c379a000000000000000000000000000000000000000000000000000000000815260206004820181905260248201527f4f776e61626c653a2063616c6c6572206973206e6f7420746865206f776e657260448201526064016106f1565b600255565b73ffffffffffffffffffffffffffffffffffffffff82166000908152600a6020526040902054818111610fff576040517f08c379a000000000000000000000000000000000000000000000000000000000815260206004820152601a60248201527f43616e6e6f742073656c6c20746865206c61737420736861726500000000000060448201526064016106f1565b600061101461100e8484612104565b846106ff565b90506000670de0b6b3a76400006002548361102f91906120c7565b611039919061208e565b90506000670de0b6b3a76400006003548461105491906120c7565b61105e919061208e565b73ffffffffffffffffffffffffffffffffffffffff871660009081526008602090815260408083203384529091529020549091508511156110fb576040517f08c379a000000000000000000000000000000000000000000000000000000000815260206004820152601360248201527f496e73756666696369656e74207368617265730000000000000000000000000060448201526064016106f1565b73ffffffffffffffffffffffffffffffffffffffff86166000908152600860209081526040808320338452909152902054611137908690612104565b73ffffffffffffffffffffffffffffffffffffffff871660009081526008602090815260408083203384529091529020556111728585612104565b73ffffffffffffffffffffffffffffffffffffffff87166000908152600a60205260408120919091557f2c76e7a47fd53e2854856ac3f0a5f3ee40d15cfaa82266357ea9779c486ab9c39033908890888787876111cf848d612104565b6040805173ffffffffffffffffffffffffffffffffffffffff998a168152979098166020880152941515868801526060860193909352608085019190915260a084015260c083015260e08201529051908190036101000190a1600033826112368587612104565b6112409190612104565b604051600081818185875af1925050503d806000811461127c576040519150601f19603f3d011682016040523d82523d6000602084013e611281565b606091505b505060015460405191925060009173ffffffffffffffffffffffffffffffffffffffff9091169085908381818185875af1925050503d80600081146112e2576040519150601f19603f3d011682016040523d82523d6000602084013e6112e7565b606091505b5050905060008873ffffffffffffffffffffffffffffffffffffffff168460405160006040518083038185875af1925050503d8060008114611345576040519150601f19603f3d011682016040523d82523d6000602084013e61134a565b606091505b505090508280156113585750815b80156113615750805b6113c7576040517f08c379a000000000000000000000000000000000000000000000000000000000815260206004820152601460248201527f556e61626c6520746f2073656e642066756e647300000000000000000000000060448201526064016106f1565b505050505050505050565b60005473ffffffffffffffffffffffffffffffffffffffff163314611453576040517f08c379a000000000000000000000000000000000000000000000000000000000815260206004820181905260248201527f4f776e61626c653a2063616c6c6572206973206e6f7420746865206f776e657260448201526064016106f1565b73ffffffffffffffffffffffffffffffffffffffff81166114f6576040517f08c379a000000000000000000000000000000000000000000000000000000000815260206004820152602660248201527f4f776e61626c653a206e6577206f776e657220697320746865207a65726f206160448201527f646472657373000000000000000000000000000000000000000000000000000060648201526084016106f1565b6114ff81611924565b50565b60005473ffffffffffffffffffffffffffffffffffffffff163314611583576040517f08c379a000000000000000000000000000000000000000000000000000000000815260206004820181905260248201527f4f776e61626c653a2063616c6c6572206973206e6f7420746865206f776e657260448201526064016106f1565b600180547fffffffffffffffffffffffff00000000000000000000000000000000000000001673ffffffffffffffffffffffffffffffffffffffff92909216919091179055565b73ffffffffffffffffffffffffffffffffffffffff84166000908152600960205260408120548481101561165a576040517f08c379a000000000000000000000000000000000000000000000000000000000815260206004820152600f60248201527f526577617264732072756e206f7574000000000000000000000000000000000060448201526064016106f1565b6040805133606090811b7fffffffffffffffffffffffffffffffffffffffff000000000000000000000000908116602080850191909152918a901b166034830152604882018890526068808301889052835180840390910181526088830184528051908201207f19457468657265756d205369676e6564204d6573736167653a0a33320000000060a884015260c48084018290528451808503909101815260e4909301909352815191012060006117118287611999565b905073ffffffffffffffffffffffffffffffffffffffff811615801590611752575060065473ffffffffffffffffffffffffffffffffffffffff8281169116145b6117b8576040517f08c379a000000000000000000000000000000000000000000000000000000000815260206004820152601360248201527f7369676e6174757265206e6f742076616c69640000000000000000000000000060448201526064016106f1565b3360009081526007602090815260408083208a845290915290205460ff161561183d576040517f08c379a000000000000000000000000000000000000000000000000000000000815260206004820152600a60248201527f6e6f6e636520757365640000000000000000000000000000000000000000000060448201526064016106f1565b3360008181526007602090815260408083208b8452825280832080547fffffffffffffffffffffffffffffffffffffffffffffffffffffffffffffff0016600117905573ffffffffffffffffffffffffffffffffffffffff8d1683526008825280832093835292905220546118b3908990612076565b73ffffffffffffffffffffffffffffffffffffffff8a1660009081526008602090815260408083203384529091529020556118ee8885612104565b73ffffffffffffffffffffffffffffffffffffffff8a166000908152600960205260409020555060019350505050949350505050565b6000805473ffffffffffffffffffffffffffffffffffffffff8381167fffffffffffffffffffffffff0000000000000000000000000000000000000000831681178455604051919092169283917f8be0079c531659141344cd1fd0a4f28419497f9722a3daafe3b4186f6b6457e09190a35050565b60008060006119a885856119bd565b915091506119b581611a2d565b509392505050565b6000808251604114156119f45760208301516040840151606085015160001a6119e887828585611d49565b94509450505050611a26565b825160401415611a1e5760208301516040840151611a13868383611e61565b935093505050611a26565b506000905060025b9250929050565b6000816004811115611a68577f4e487b7100000000000000000000000000000000000000000000000000000000600052602160045260246000fd5b1415611a715750565b6001816004811115611aac577f4e487b7100000000000000000000000000000000000000000000000000000000600052602160045260246000fd5b1415611b14576040517f08c379a000000000000000000000000000000000000000000000000000000000815260206004820152601860248201527f45434453413a20696e76616c6964207369676e6174757265000000000000000060448201526064016106f1565b6002816004811115611b4f577f4e487b7100000000000000000000000000000000000000000000000000000000600052602160045260246000fd5b1415611bb7576040517f08c379a000000000000000000000000000000000000000000000000000000000815260206004820152601f60248201527f45434453413a20696e76616c6964207369676e6174757265206c656e6774680060448201526064016106f1565b6003816004811115611bf2577f4e487b7100000000000000000000000000000000000000000000000000000000600052602160045260246000fd5b1415611c80576040517f08c379a000000000000000000000000000000000000000000000000000000000815260206004820152602260248201527f45434453413a20696e76616c6964207369676e6174757265202773272076616c60448201527f756500000000000000000000000000000000000000000000000000000000000060648201526084016106f1565b6004816004811115611cbb577f4e487b7100000000000000000000000000000000000000000000000000000000600052602160045260246000fd5b14156114ff576040517f08c379a000000000000000000000000000000000000000000000000000000000815260206004820152602260248201527f45434453413a20696e76616c6964207369676e6174757265202776272076616c60448201527f756500000000000000000000000000000000000000000000000000000000000060648201526084016106f1565b6000807f7fffffffffffffffffffffffffffffff5d576e7357a4501ddfe92f46681b20a0831115611d805750600090506003611e58565b8460ff16601b14158015611d9857508460ff16601c14155b15611da95750600090506004611e58565b6040805160008082526020820180845289905260ff881692820192909252606081018690526080810185905260019060a0016020604051602081039080840390855afa158015611dfd573d6000803e3d6000fd5b50506040517fffffffffffffffffffffffffffffffffffffffffffffffffffffffffffffffe0015191505073ffffffffffffffffffffffffffffffffffffffff8116611e5157600060019250925050611e58565b9150600090505b94509492505050565b6000807f7fffffffffffffffffffffffffffffffffffffffffffffffffffffffffffffff831681611e9760ff86901c601b612076565b9050611ea587828885611d49565b935093505050935093915050565b803573ffffffffffffffffffffffffffffffffffffffff81168114611ed757600080fd5b919050565b600060208284031215611eed578081fd5b61066d82611eb3565b60008060408385031215611f08578081fd5b611f1183611eb3565b9150611f1f60208401611eb3565b90509250929050565b60008060408385031215611f3a578182fd5b611f4383611eb3565b946020939093013593505050565b60008060008060808587031215611f66578182fd5b611f6f85611eb3565b93506020850135925060408501359150606085013567ffffffffffffffff80821115611f99578283fd5b818701915087601f830112611fac578283fd5b813581811115611fbe57611fbe61214a565b604051601f82017fffffffffffffffffffffffffffffffffffffffffffffffffffffffffffffffe0908116603f011681019083821181831017156120045761200461214a565b816040528281528a602084870101111561201c578586fd5b82602086016020830137918201602001949094529598949750929550505050565b60006020828403121561204e578081fd5b5035919050565b60008060408385031215612067578182fd5b50508035926020909101359150565b600082198211156120895761208961211b565b500190565b6000826120c2577f4e487b710000000000000000000000000000000000000000000000000000000081526012600452602481fd5b500490565b6000817fffffffffffffffffffffffffffffffffffffffffffffffffffffffffffffffff04831182151516156120ff576120ff61211b565b500290565b6000828210156121165761211661211b565b500390565b7f4e487b7100000000000000000000000000000000000000000000000000000000600052601160045260246000fd5b7f4e487b7100000000000000000000000000000000000000000000000000000000600052604160045260246000fdfea164736f6c6343000804000a",
  "linkReferences": {},
  "deployedLinkReferences": {}
}